{
  "contractName": "first",
  "abi": [
    {
      "constant": true,
      "inputs": [],
      "name": "age",
      "outputs": [
        {
          "internalType": "uint256",
          "name": "",
          "type": "uint256"
        }
      ],
      "payable": false,
      "stateMutability": "view",
      "type": "function"
    },
    {
      "constant": true,
      "inputs": [],
      "name": "name",
      "outputs": [
        {
          "internalType": "string",
          "name": "",
          "type": "string"
        }
      ],
      "payable": false,
      "stateMutability": "view",
      "type": "function"
    }
  ],
  "bytecode": "0x60806040526040518060400160405280600581526020017f526f68616e0000000000000000000000000000000000000000000000000000008152506000908051906020019061004f929190610067565b50601260015534801561006157600080fd5b5061010c565b828054600181600116156101000203166002900490600052602060002090601f016020900481019282601f106100a857805160ff19168380011785556100d6565b828001600101855582156100d6579182015b828111156100d55782518255916020019190600101906100ba565b5b5090506100e391906100e7565b5090565b61010991905b808211156101055760008160009055506001016100ed565b5090565b90565b6101b58061011b6000396000f3fe608060405234801561001057600080fd5b50600436106100365760003560e01c806306fdde031461003b578063262a9dff146100be575b600080fd5b6100436100dc565b6040518080602001828103825283818151815260200191508051906020019080838360005b83811015610083578082015181840152602081019050610068565b50505050905090810190601f1680156100b05780820380516001836020036101000a031916815260200191505b509250505060405180910390f35b6100c661017a565b6040518082815260200191505060405180910390f35b60008054600181600116156101000203166002900480601f0160208091040260200160405190810160405280929190818152602001828054600181600116156101000203166002900480156101725780601f1061014757610100808354040283529160200191610172565b820191906000526020600020905b81548152906001019060200180831161015557829003601f168201915b505050505081565b6001548156fea265627a7a723158206c591ef74e1936940628950dae35268efd4becabf9395705e6e9fbf9bef1167d64736f6c63430005110032",
  "source": "// SPDX-License-Identifier: GPL-3.0\r\n\r\npragma solidity >=0.4.22 <0.9.0;\r\n\r\ncontract first {\r\n    string public name = \"Rohan\";\r\n    uint public age = 18;\r\n\r\n    // constructor(name) {\r\n    //     name = \"Control your brain !\";\r\n    // }\r\n}\r\n\r\n// function getName() public view returns (string memory) {\r\n//     return name;\r\n// }\r\n\r\n// function getAge() public view returns (uint) {\r\n//     return age;\r\n// }\r\n\r\n// function setAge() public {\r\n//     age += 2;\r\n// }\r\n",
  "sourcePath": "C:\\Users\\Hemanth KR\\OneDrive\\Desktop\\3\\contracts\\first.sol",
  "compiler": {
    "name": "solc",
    "version": "0.5.17+commit.d19bba13.Emscripten.clang"
  },
  "schemaVersion": "3.4.16",
  "updatedAt": "2023-12-14T11:26:08.463Z",
  "networkType": "ethereum",
  "devdoc": {
    "methods": {}
  },
  "userdoc": {
    "methods": {}
  }
}