{
  "contractName": "first",
  "abi": [
    {
      "constant": true,
      "inputs": [],
      "name": "age",
      "outputs": [
        {
          "internalType": "uint256",
          "name": "",
          "type": "uint256"
        }
      ],
      "payable": false,
      "stateMutability": "view",
      "type": "function"
    },
    {
      "constant": true,
      "inputs": [],
      "name": "name",
      "outputs": [
        {
          "internalType": "string",
          "name": "",
          "type": "string"
        }
      ],
      "payable": false,
      "stateMutability": "view",
      "type": "function"
    },
    {
      "constant": true,
      "inputs": [],
      "name": "getName",
      "outputs": [
        {
          "internalType": "string",
          "name": "",
          "type": "string"
        }
      ],
      "payable": false,
      "stateMutability": "view",
      "type": "function"
    },
    {
      "constant": true,
      "inputs": [],
      "name": "getAge",
      "outputs": [
        {
          "internalType": "uint256",
          "name": "",
          "type": "uint256"
        }
      ],
      "payable": false,
      "stateMutability": "view",
      "type": "function"
    },
    {
      "constant": false,
      "inputs": [
        {
          "internalType": "string",
          "name": "Nam",
          "type": "string"
        }
      ],
      "name": "setName",
      "outputs": [],
      "payable": false,
      "stateMutability": "nonpayable",
      "type": "function"
    },
    {
      "constant": false,
      "inputs": [
        {
          "internalType": "uint256",
          "name": "Age",
          "type": "uint256"
        }
      ],
      "name": "setAge",
      "outputs": [],
      "payable": false,
      "stateMutability": "nonpayable",
      "type": "function"
    }
  ],
  "bytecode": "0x60806040526040518060400160405280600581526020017f526f68616e0000000000000000000000000000000000000000000000000000008152506000908051906020019061004f929190610067565b50601260015534801561006157600080fd5b5061010c565b828054600181600116156101000203166002900490600052602060002090601f016020900481019282601f106100a857805160ff19168380011785556100d6565b828001600101855582156100d6579182015b828111156100d55782518255916020019190600101906100ba565b5b5090506100e391906100e7565b5090565b61010991905b808211156101055760008160009055506001016100ed565b5090565b90565b6104e08061011b6000396000f3fe608060405234801561001057600080fd5b50600436106100625760003560e01c806306fdde031461006757806317d7de7c146100ea578063262a9dff1461016d578063967e6e651461018b578063c47f0027146101a9578063d5dcf12714610264575b600080fd5b61006f610292565b6040518080602001828103825283818151815260200191508051906020019080838360005b838110156100af578082015181840152602081019050610094565b50505050905090810190601f1680156100dc5780820380516001836020036101000a031916815260200191505b509250505060405180910390f35b6100f2610330565b6040518080602001828103825283818151815260200191508051906020019080838360005b83811015610132578082015181840152602081019050610117565b50505050905090810190601f16801561015f5780820380516001836020036101000a031916815260200191505b509250505060405180910390f35b6101756103d2565b6040518082815260200191505060405180910390f35b6101936103d8565b6040518082815260200191505060405180910390f35b610262600480360360208110156101bf57600080fd5b81019080803590602001906401000000008111156101dc57600080fd5b8201836020820111156101ee57600080fd5b8035906020019184600183028401116401000000008311171561021057600080fd5b91908080601f016020809104026020016040519081016040528093929190818152602001838380828437600081840152601f19601f8201169050808301925050505050505091929192905050506103e2565b005b6102906004803603602081101561027a57600080fd5b81019080803590602001909291905050506103fc565b005b60008054600181600116156101000203166002900480601f0160208091040260200160405190810160405280929190818152602001828054600181600116156101000203166002900480156103285780601f106102fd57610100808354040283529160200191610328565b820191906000526020600020905b81548152906001019060200180831161030b57829003601f168201915b505050505081565b606060008054600181600116156101000203166002900480601f0160208091040260200160405190810160405280929190818152602001828054600181600116156101000203166002900480156103c85780601f1061039d576101008083540402835291602001916103c8565b820191906000526020600020905b8154815290600101906020018083116103ab57829003601f168201915b5050505050905090565b60015481565b6000600154905090565b80600090805190602001906103f8929190610406565b5050565b8060018190555050565b828054600181600116156101000203166002900490600052602060002090601f016020900481019282601f1061044757805160ff1916838001178555610475565b82800160010185558215610475579182015b82811115610474578251825591602001919060010190610459565b5b5090506104829190610486565b5090565b6104a891905b808211156104a457600081600090555060010161048c565b5090565b9056fea265627a7a7231582007a21f226ddc6665fa3610014dcbbd9876eef94a340ceff1ff215079a323035664736f6c63430005110032",
  "source": "// SPDX-License-Identifier: GPL-3.0\r\n\r\npragma solidity >=0.4.22 <0.9.0;\r\n\r\ncontract first {\r\n    string public name = \"Rohan\";\r\n    uint public age = 18;\r\n\r\n    // constructor(name) {\r\n    //     name = \"Control your brain !\";\r\n    // }\r\n\r\n    function getName() public view returns (string memory) {\r\n        return name;\r\n    }\r\n\r\n    function getAge() public view returns (uint) {\r\n        return age;\r\n    }\r\n\r\n    function setName(string memory Nam) public {\r\n        name = Nam;\r\n    }\r\n\r\n    function setAge(uint Age) public {\r\n        age = Age;\r\n    }\r\n\r\n    // function setAge() public {\r\n    //     age += 2;\r\n    // }\r\n}\r\n",
  "sourcePath": "C:\\Users\\Hemanth KR\\OneDrive\\Desktop\\3\\contracts\\first.sol",
  "compiler": {
    "name": "solc",
    "version": "0.5.17+commit.d19bba13.Emscripten.clang"
  },
  "schemaVersion": "3.4.16",
  "updatedAt": "2023-12-15T05:26:09.378Z",
  "networkType": "ethereum",
  "devdoc": {
    "methods": {}
  },
  "userdoc": {
    "methods": {}
  }
}